:020000040800F2
:1000000000000220A5560108C9EC0008CDEC00084C
:10001000D9EC0008E5EC0008F1EC00080000000055
:10002000000000000000000000000000FDEC0008DF
:1000300001ED00080000000005ED0008A1EC00083B
:10004000F9560108F9560108F9560108F956010850
:10005000F9560108F9560108F9560108F956010840
:10006000F9560108F9560108F9560108F956010830
:10007000F9560108F9560108F9560108F956010820
:10008000F956010879ED0008F9560108F9560108FA
:10009000F9560108F9560108F9560108F956010800
:1000A000F9560108F9560108F9560108F9560108F0
:1000B00009ED000811ED0008F9560108E9ED000806
:1000C000E1ED0008F9ED0008F1ED0008F95601082E
:1000D000F9560108D5ED0008DDED0008F9560108D4
:1000E000F9560108F9560108F9560108F9560108B0
:1000F000F9560108F9560108F9560108F9560108A0
:10010000F9560108F9560108F9560108F95601088F
:10011000F9560108F9560108F9560108F95601087F
:10012000F9560108F9560108F9560108F95601086F
:10013000F9560108F9560108F9560108F95601085F
:10014000F9560108F9560108F9560108F95601084F
:10015000F9560108F95601081DED0008F956010885
:10016000F9560108F9560108F9560108F95601082F
:10017000F9560108F9560108F9560108F95601081F
:08018000F9560108F9560108C7
:1080000010B540F6E004C2F20004237863B940F2F0
:108010000000C0F2000028B145F61020C0F60100B3
:10802000AFF300800121217010BD00BF08B540F200
:108030000003C0F200034BB145F6102040F6E40106
:10804000C0F60100C2F20001AFF3008040F6E0008C
:10805000C2F20000016829B140F20003C0F200033F
:1080600003B1984708BD00BF70B542F2FB16C3F6D6
:10807000E97621F00043B34286B01CDD4FF6FF7273
:10808000C7F6EF72934205DD02460B4602F0A6FDED
:1080900006B070BD02AA01F0D3F800F00303DDE9D9
:1080A0000201012B13D0022B0AD0C3B9DDE904234E
:1080B00001F0C6FBECE70022002301F0C1FBE7E77B
:1080C000DDE9042301F0BCFB01F10041E0E700938E
:1080D000DDE9042302F0F8F801F10041D8E70123BB
:1080E0000093DDE9042302F0EFF8D1E770B542F226
:1080F000FB16C3F6E97621F00043B34286B01EDDDD
:108100004FF6FF72C7F6EF72934205DD02460B464B
:1081100002F064FD06B070BD02AA01F091F800F013
:10812000030001281DD0022810D008BB0123DDE97F
:1081300002010093DDE9042302F0C6F8EAE7002219
:1081400000230024009402F0BFF8E3E70123DDE9F7
:1081500002010093DDE9042302F0B6F801F10041C9
:10816000D8E7DDE90201DDE9042301F069FBD1E78D
:10817000DDE90201DDE9042301F062FB01F10041C8
:10818000C8E700BF00F09CB92DE9F04F8BB09946CD
:1081900082468B46904600F0A7FA40F20004C2F2F5
:1081A000000494F90030013306460F4604D04046DF
:1081B000494602F091FB20B9304639460BB0BDE884
:1081C000F08F5046594602F087FB054650BB4046AB
:1081D00049460022002303F01DF90028ECD094F951
:1081E000003045F60422C0F601020895A3F1FF30E5
:1081F000CDE902AB4142CDE9048941EB0001002009
:10820000022B14BF0B4641F0010301218DE806004B
:108210000021C3F6F071CDE90601002B2DD0DDE978
:108220000667C9E7504659460022002303F0F2F8DA
:1082300000282FD0404649460022002303F0EAF8E8
:10824000002862D094F9001045F60423C0F601031B
:108250000122CDE902AB8DE80C0000230022089337
:10826000CDE904890023CDE9062331B100230022A2
:10827000C3F6F073CDE90623D1E7684602F074FB3C
:1082800000286FD0089B002BC9D003F06DF9089B24
:108290000360C4E73046394602F076FA0546002806
:1082A00065D0304639460022002303F0B3F8002899
:1082B00082D05046594602F067FA00283FF47CAF5E
:1082C0004046494602F060FA00283FF475AF94F941
:1082D000001045F604230422C0F601038DE80C00CB
:1082E00000230022089300230229CDE902ABCDE947
:1082F0000489CDE906236ED0684602F035FB0028DC
:1083000069D0089B002B8AD0BFE74046494602F05F
:108310003BFA00283FF450AF404649460022002374
:1083200003F082F800283FF447AF237845F6042293
:10833000C0F601020121CDE902AB8DE80600002262
:10834000CDE904890892002B40D000200021022BA7
:10835000CFF6F071CDE9060132D103F005F9212302
:108360000360CEE703F000F9212303608AE750465B
:10837000594602F009FA002893D04046494602F0D7
:1083800003FA00288DD03046394602F0A5FA38BBF2
:10839000247845F60423C0F60103012208908DE8F5
:1083A0000C00CDE902ABCDE904897CB100200021AD
:1083B00002460B4602F0F0FE022CCDE90601CCD0BD
:1083C000684602F0D1FA00289BD1C6E700220023BC
:1083D000CDE90623F4E703F0C7F82223036090E712
:1083E00094F9002045F604230321C0F60103089503
:1083F00050468DE80A005946CDE902ABCDE9048923
:10840000E2B94FF6FF77002200234FF06046C4F236
:10841000EF77CDE9066703F007F8002833D194F928
:108420000030022B05D0684602F09EFA00287FF447
:1084300029AF03F099F82223036023E700270022E5
:1084400000230026C7F6F077CDE9066702F0ECFFBF
:108450000028E4D000230022C3F6E07340464946DA
:1084600002F070FD06460F4602F086FA32463B46A1
:1084700002F0D0FF0028D2D100230022CFF6F07303
:10848000CDE90623CBE700230022C3F6E073404684
:10849000494602F057FD06460F4602F06DFA324695
:1084A0003B4602F0B7FF0028B9D14FF6FF734FF0FB
:1084B0006042CCF2EF73CDE90623B0E70000000084
:1084C0002DE9F04F83B014461D46CDE900235242FA
:1084D0002243002325F00047C7F6F07347EAD27223
:1084E00082469A428B4606464ED8424221F0004CC4
:1084F000024388464CEAD2729A4245D805F140437D
:1085000003F58013234363D0AB175CEA060603F040
:10851000020343EAD17944D03C4351D00023C7F64B
:10852000F0739F4267D00023C7F6F0739C4547D095
:10853000C7EB0C073F153C2F59DC17F13C0FACBFC4
:108540000027012717EAD57700F08480002000215A
:10855000B9F1010F04BF824601F1004B1CD0B9F103
:10856000020F68D082468B46B9F1000F14D04CA39D
:10857000D3E9002302F032FB4BA3D3E9002302F03E
:108580002DFB82468B4607E050465946DDE9002325
:1085900002F026FB82468B465046594603B0BDE8A2
:1085A000F08FB9F1030FB7D801A353F829F000BF3A
:1085B0009985000899850008E5850008DB85000895
:1085C000B8F1000F32DB0FF2E80BDBE900ABE3E7B9
:1085D00003B0BDE8F04F01F02BBF0FF2DC0BDBE97D
:1085E00000ABD9E70FF2C00BDBE900ABD4E730A159
:1085F000D1E90001ACE7BC4537D0B9F1030F92D8FF
:1086000001A353F829F000BF23860008198600084B
:10861000E5850008DB8500084FF0000A4FF0004BAD
:10862000BAE74FF0000A4FF0000BB5E70FF2900BDE
:10863000DBE900ABB0E71AA3D3E9002302F0CEFADE
:1086400002460B4618A1D1E9000102F0C7FA8246A2
:108650008B46A1E7DDE900235046594602F09CFD18
:1086600002F08EF801F0E4FE72E7B9F1030FA7D82B
:10867000DFE809F0110C07020FF24C0BDBE900AB4D
:108680008AE70FF24C0BDBE900AB85E70FF2480BF2
:10869000DBE900AB80E70FF2480BDBE900AB7BE7DF
:1086A000075C143326A6A13C182D4454FB21094035
:1086B000182D4454FB21F93F182D4454FB2109C0C7
:1086C000182D4454FB21F9BFD221337F7CD902C03D
:1086D000D221337F7CD90240182D4454FB21E9BFBD
:1086E000182D4454FB21E93F2DE9F04F23F00044BD
:1086F000894654EA0201824691B094469B46104650
:1087000098464E46554600F08780002229F00047E3
:10871000C7F6F072CDF80890974210DD07F1404798
:1087200007F5801C5CEA050C04BF4FF0000BC3F694
:10873000F07B77D16046594611B0BDE8F08F14BF89
:1087400000230123BAF1000F0CBF002103F0010147
:108750000029E3D19442E1DC14BF002101210491FE
:10876000BCF1000F0CBF002101F001010029D5D19F
:10877000B9F1000F5FDB069190B9049A002A79D114
:108780000022C3F6F072944200F0B580B8F1804F39
:1087900000F00A840022C3F6E072904500F0F983ED
:1087A000504649460193CDF800C001F0E9FF019B16
:1087B000DDF800C004914DB9002F08BF43F001035C
:1087C000002B73D1C3F6F0739F426FD0F60F06995A
:1087D000013E314300F08A800023C4F2E0139C4242
:1087E00040F3A2800023C4F2F0339C4240F346845D
:1087F0004FF6FF73C3F6EF739F4240F3DF83B8F188
:10880000000F4FDD46A1D1E9000102460B4602F000
:1088100099FB84468B468DE74FF0000B8C46C3F6E0
:10882000F07B87E745F60820C0F6010011B0BDE8EF
:10883000F04F02F09BB84FF6FF72C4F23F32944201
:108840006BDC4FF6FF72C3F6EF72944293DD221594
:1088500040F213418A4240F3AD84C2F5866203328E
:1088600030FA02F111FA02F2624500F0BA840021F6
:10887000069181E707F1404303F580132B4302BFC4
:108880004FF0000B9C46C3F6F07B3FF453AF4FF61E
:10889000FF73C3F6EF739F4240F3E883B8F1000F14
:1088A000BFF648AF4FF0000CE34643E7B8F1000FC6
:1088B000C0F25A84DDF810B08446029E002EBFF646
:1088C00039AF07F14043069F03F580131F4340F083
:1088D0007F8462465B466046594602F07FF9024655
:1088E0000B4602F059FC84468B4623E75046494626
:1088F00052464B46F1E7B8F1000FA4BFD446CB4631
:10890000BFF618AF002152460020C3F6F0714B4667
:1089100002F042FC84468B460CE7022206922BE7CB
:108920009C7500883CE4377E0021B7F5801F10DA83
:10893000049D0023C4F2403300222946CDF800C034
:1089400002F000FBDDF800C00B4604911F466FF0FB
:10895000340127F07F4349F68E024FEA275A23F469
:108960007003C0F203020025AAF57E7A9342AAF1B1
:10897000070A43F07E548A4444F4E0042F460EDD97
:108980004BF279620127C0F20B024FF4802593422B
:1089900005DD00250AF1010AA4F580142F4645F2F1
:1089A00000710246C0F60101234601EBC707CDE97D
:1089B0000823CDF800C0D7E90001CDE90A0110462F
:1089C0002146DDE90A2302F009F9DDE90A23CDE9B0
:1089D0000C01DDE9080102F003F90B460021024613
:1089E000C3F6F071002002F0D7FBCDE90E01DDE9FE
:1089F0000E23DDE90C0102F0A5FA631043F00053E9
:108A0000002203F50023CDE902010292DDE902898B
:108A1000CDE904010020591904460D4622462B4693
:108A20004046494602F08EFA02460B46DDE90C014B
:108A300002F0D4F8DDE90A23CDE90C0120462946ED
:108A400002F0CCF802460B46DDE9080102F0C6F858
:108A500002460B464046494602F074FA02460B466F
:108A6000DDE90C0102F0BAF8DDE90E2302F06AFA42
:108A7000CDE90801DDE9040102460B4602F062FA85
:108A800002460B4604460D4602F05CFA7AA3D3E98F
:108A90000023CDE90A012046294602F053FA78A3C3
:108AA000D3E9002302F09CF822462B4602F04AFA52
:108AB00075A3D3E9002302F093F822462B4602F077
:108AC00041FA73A3D3E9002302F08AF822462B4629
:108AD00002F038FA70A3D3E9002302F081F82246AD
:108AE0002B4602F02FFA6EA3D3E9002302F078F8A8
:108AF00002460B46DDE90A0102F024FADDE904230F
:108B000004460D464046494602F06AF8DDE908236E
:108B100002F018FA22462B4602F062F842464B4613
:108B2000CDE90A014046494602F00CFA0022002332
:108B3000C4F20803CDE90E0102F052F8DDE90A2380
:108B400002F04EF8029B40461C461A460D46494626
:108B50002B4602F0F7F922462B46CDE90C01DDE960
:108B6000080102F0EFF900230022C4F20803804656
:108B700089462046294602F031F8DDE90E2302F04D
:108B80002DF802460B46DDE90A0102F027F8DDE97F
:108B9000042302F0D7F902460B464046494602F04C
:108BA0001FF88046894642464B46DDE90C0102F03B
:108BB00017F8029A10463CA3D3E9002304460D4659
:108BC00002F0C0F93AA3D3E90023CDE9040120461D
:108BD000294602F0B7F9DDE90C23CDE9080120466A
:108BE000294601F0FBFF02460B464046494601F08C
:108BF000F5FF31A3D3E9002302F0A4F902460B46A6
:108C0000DDE9080101F0ECFFD7E9042301F0E8FFFA
:108C1000CDE90801504602F02FF9D7E90889DDE9CE
:108C2000082304460D46DDE9040101F0D9FF424660
:108C30004B4601F0D5FF22462B4601F0D1FF029BA7
:108C4000224618462B4604460D4601F0C7FF424611
:108C50004B4601F0C3FFDDE9042301F0BFFF0246EC
:108C60000B46DDE9080101F0B9FFCDE90401DDF8AB
:108C700000C025E0AFF30080EF4E454A287ECA3F92
:108C800065DBC9934A86CD3F01411DA96074D13F80
:108C90004D268F515555D53FFFAB6FDBB66DDB3F92
:108CA000033333333333E33F000000E009C7EE3FC3
:108CB000F5015B14E02F3EBEFD033ADC09C7EE3F31
:108CC000069F60465946CDF800C07B1E4FF0000756
:108CD00033434FF000060CBFCBF6F077C3F6F077C6
:108CE000CDE9066766465F46CDE902670027029731
:108CF000DDE9026732463B4601F070FF22462B4613
:108D000002F020F9DDF800C0DDE904238046894641
:108D10006046594602F016F902460B46404649465F
:108D200001F05EFF22462B46CDE90401304639466C
:108D300002F008F9804689464B46DDE904014246C7
:108D400001F04EFF4FF6FF73C4F28F039942824643
:108D50008B468C4640F35C8101F13F4303F5E00311
:108D6000034340F00D8298A3D3E90023DDE9040119
:108D7000CDF800B001F034FF42464B4604460D46A4
:108D80005046594601F02AFF02460B462046294626
:108D900002F068FBDDF800C0002840F0F1815D467C
:108DA0002B154FF48012A3F57E734FF6FF71063B2F
:108DB000C0F20F0152FA03F300246344C3F30A52D2
:108DC00023F07F40A2F57E7620F47000073EC2F5C6
:108DD0008262314140F4801023EA0105D11C50FA2F
:108DE00001F1BCF1000F22462B460291C0F2008235
:108DF0004046494601F0F2FE804689464246DDE99A
:108E000004014B4601F0ECFE029E4FEA065C8B46E5
:108E10006FA3D3E9002300205946CDF800C00446D3
:108E200002F090F85D4642464B4682468B4620460D
:108E3000294601F0D3FE02460B46DDE9040101F0AC
:108E4000CDFE65A3D3E9002302F07CF864A3D3E947
:108E5000002306460F462046294602F073F80246D4
:108E60000B463046394601F0BBFE04460D4622460D
:108E70002B465046594601F0B3FE52465B46064625
:108E80000F4601F0ABFE02460B462046294601F094
:108E9000A5FE32463B46804689463046394602F0BA
:108EA00051F851A3D3E9002304460D4602F04AF8D5
:108EB0004FA3D3E9002301F091FE22462B4602F096
:108EC00041F84DA3D3E9002301F08AFE22462B4648
:108ED00002F038F84AA3D3E9002301F07FFE2246CE
:108EE0002B4602F02FF848A3D3E9002301F078FEC7
:108EF00022462B4602F026F802460B4630463946FB
:108F000001F06CFE04460D4622462B46304639469B
:108F100002F018F800224FF0804382468B4620462C
:108F2000294601F05BFE02460B465046594602F0C8
:108F300033F942464B4604460D463046394602F068
:108F400001F842464B4601F04BFE02460B462046D6
:108F5000294601F043FE32463B4601F03FFE0B46F8
:108F600000210246C3F6F071002001F037FEDDF863
:108F700000C00CEB0103B3F5801FA8BF0246C0F28E
:108F80003A81DDE9060101F0DDFF84468B46FFF7FB
:108F9000D1BB02980028FFF603AC5046494611B0F9
:108FA000BDE8F04F00F070BB5046494652464B4674
:108FB00001F0C8FF84468B46FFF7BCBBB8F1000F39
:108FC000BFF670AC1EE400BFFE822B654715973CD0
:108FD00000000000432EE63FEF39FAFE422EE63F46
:108FE000396CA80C615C20BED0A4BE726937663EA5
:108FF000F16BD2C541BDBB3E2CDE25AF6A56113F99
:1090000093BDBE166CC1663F3E5555555555C53F7F
:109010004CF6FF3321F00045C4F290039D4240F32B
:10902000BF804FF45053C3F66F73CB1803430DD179
:1090300042464B46009101F0D1FDDDE9042302F0E8
:1090400007FADDF800C000283FF4AAAE70A3D3E908
:109050000023DDE9060101F075FF6DA3D3E90023CC
:1090600001F070FF84468B46FFF764BBB8F1000F38
:10907000BFF618AC0BF1004BFFF75CBB4FF6FE736D
:10908000C3F6EF739F4299DD0023C3F6F0739F424E
:109090003FF7B5AB049D00230022C3F6F0732946C9
:1090A000CDF800C001F09AFD5BA3D3E9002304468C
:1090B0000D4601F047FF5AA3D3E9002380468946B5
:1090C0002046294601F03EFF22462B46CDE902010B
:1090D0002046294601F036FF00230022C3F6D07354
:1090E000CDE904012046294601F02CFF02460B463B
:1090F0004DA1D1E9000101F071FD22462B4600246B
:1091000001F020FF0B4600210246C3F6E07100206B
:1091100001F064FD02460B46DDE9040101F012FF97
:1091200043A3D3E9002301F00DFF02460B46DDE91E
:10913000020101F053FDCDE902014046DDE90223C1
:10914000494601F04DFD42464B4620460D4601F092
:1091500045FD02460B46DDE9020101F03FFDDDF869
:1091600000C0CDE90401ABE500210246C3F6F07171
:109170000020049B02F010F884468B46FFF79DBB4D
:109180002DA3D3E90023DDE9060101F0DBFE2AA3CC
:10919000D3E9002301F0D6FE84468B46FFF7CABA16
:1091A0000023C3F6E0739D42D8BFDDF808C07FF707
:1091B0002FAEF5E588B9C2F58262033254FA02F1A6
:1091C00011FA02F2A2421CD000200690FFF7D5BA95
:1091D000069E012E7FF4AEAA4CE700210691FFF710
:1091E000DFBA01F00102C2F102020692FFF7C4BA2F
:1091F00049420291FCE5029A01F056FC02460B46F8
:10920000BFE601F00102C2F102020692FFF7B5BA11
:1092100059F3F8C21F6EA501000000604715F73F23
:1092200044DF5DF80BAE543E555555555555D53F69
:10923000FE822B654715F73F9C7500883CE4377E1E
:1092400042F2FB132DE9F04FC3F6E97321F000461B
:109250008FB09E4204460D468846174640F3A380D1
:109260004DF67B13C4F202039E4226DC002996A32E
:10927000D3E9002340F3B28101F0B0FC42F2FB13CA
:10928000C3F6F9739E428046894600F0A18090A300
:10929000D3E90023012401F0A1FC02460B46C7E9F3
:1092A00000014046494601F099FC89A3D3E9002317
:1092B00001F094FCC7E902017CE042F2FB13C4F226
:1092C00039139E4240F3A1804FF6FF73C7F6EF7348
:1092D0009E4273DC4FEA26598246A9F58269A9F1BC
:1092E00006094FEA0951731A19469B4602F0C4F861
:1092F00001F0C2FD04460D4602460B465046594653
:10930000CDE9084501F06AFC00230022C4F2701385
:1093100001F018FE04460D4602F0AEF801F0ACFD77
:1093200002460B4682468B4620462946CDE90AABCB
:1093300001F054FC00230022C4F27013032401F056
:1093400001FE00220023CDE90C0102F063F890B188
:10935000032450465946002200230AAD013C02F086
:1093600059F840B175E9020100220023013C02F0E6
:1093700051F80028F6D123465D4C08A839464A46E4
:1093800001940224009400F083FBB8F1000F04461E
:1093900010DA7A684442FB6802F100427A6003F115
:1093A0000043FB6006E0C2E90045002400220023E0
:1093B000C7E9022320460FB0BDE8F08F02460B46F6
:1093C00001F00CFC0024C7E90201C7E90001F1E744
:1093D00041A3D3E90023012401F000FC40A3D3E919
:1093E00000238046894601F0F9FB02460B46C7E997
:1093F00000014046494601F0F1FB39A3D3E90023BF
:1094000001F0ECFBC7E90201D4E701F0B9F936A39A
:10941000D3E9002382468B4601F094FD002300220D
:10942000C3F6E07301F0DCFB02F026F8044601F01D
:1094300023FD25A3D3E90023CDE9040101F082FD3A
:1094400002460B465046594601F0C8FB20A3D3E91B
:10945000002382468B46DDE9040101F073FD1F2CD9
:10946000CDE902015046594644DC45F23073621E94
:10947000C0F6010353F82230B3423BD0DDE90223AA
:1094800001F0ACFB81460D4602460B46C7E90023BE
:109490004A462B465046594601F0A0FBDDE902231F
:1094A00001F09CFBB8F1000F02460B46C7E902230E
:1094B00080DA05F1004501F10041C7F800906442EF
:1094C0007D60B860F96075E700004054FB21F93F0A
:1094D0003163621A61B4D03D0000601A61B4D03DBE
:1094E0007370032E8A19A33B83C8C96D305FE43FB4
:1094F000B0570108DDE90223361501F06FFBC1F317
:109500000A538146F31A0D46102BC7E90001BFDD4F
:1095100053A3D3E90023DDE9040101F013FDCDE9F4
:1095200002015046DDE90223594601F057FBCDE91F
:10953000060150465946DDE9062301F04FFBDDE9FF
:10954000022301F04BFB48A3D3E9002382468B465C
:10955000DDE9040101F0F6FC52465B4601F03EFBFA
:10956000CDE90201DDE90223DDE9060101F036FB68
:10957000C1F30A538146F31A0D46312BC7E90001A6
:109580006BDD3BA3D3E90023DDE9040101F0DAFC44
:10959000CDE90201DDE90223DDE9060101F01EFB50
:1095A00082468B4652465B46DDE9060101F016FB1A
:1095B000DDE9022301F012FB2FA3D3E90023CDE95B
:1095C0000201DDE9040101F0BDFCDDE9022301F047
:1095D00005FBCDE90201504659464FE701F000FB7B
:1095E00042F2FB13C3F6F9739E428046894616D0B9
:1095F00023A3D3E900234FF0FF3401F0F1FA024630
:109600000B46C7E900014046494601F0E7FA1CA3B2
:10961000D3E9002301F0E4FAC7E90201CAE610A386
:10962000D3E900234FF0FF3401F0DAFA0EA3D3E9B7
:1096300000238046894601F0D3FA02460B46C7E96B
:1096400000014046494601F0C9FA07A3D3E90023C7
:1096500001F0C6FAC7E90201ACE6DDE906AB17E79F
:109660000000601A61B4D03D7370032E8A19A33BC9
:109670000000002E8A19A33BC14920259A837B391B
:109680003163621A61B4D03D2DE9F84300242546C8
:10969000C7F6F074C7F6F0750C40AC4206460F46AC
:1096A00089460B46024600F0AB8000297FDD091594
:1096B00000F08880A1F57E7C23F07F43C90723F466
:1096C0007003ACF1070C43F4801362D5D10F00276F
:1096D00001EB43034FEA6C0C5200162438464FF45A
:1096E00000114518D60F9D424FEA4202DEBFC5EB7E
:1096F000030368187F184908013C06EB4303F0D1C7
:109700002026A0464FF00041984201EB08050EDBF1
:10971000834214BF4FF000094FF0010995428CBFFE
:109720004FF0000909F00109B9F1000F0ED005F062
:10973000004905EB0108B9F1004F23D081461B1AFF
:10974000954288BF013B521B64184846D50F490813
:109750005200013E05EB4303D6D113431ED16408EA
:109760007B10FA0703F17E5348BF44F0004403F531
:10977000C0034FEA0C5C0CEB030726463046394623
:10978000BDE8F883B8F1000FA8BF00F10109D6DAEF
:10979000D4E7D10F520001EB430397E7611C1CBFD4
:1097A00004F001031C19DAD101373446D8E721F05F
:1097B00000440443E2D0002936D1D30A15395205BA
:1097C000002BFAD013F480102AD15B000130DC02A8
:1097D000FBD5C0F10105C0F1200432FA04F44919A7
:1097E0002343A1F57E7C824023F07F43C90723F405
:1097F0007003ACF1070C43F480133FF567AFC8E783
:1098000002460B4601F09EFB02460B4630463946A7
:1098100001F0E6F906460F4630463946BDE8F883C2
:10982000202401250020D8E702460B4601F0D6F996
:1098300002460B4601F0B0FC06460F469EE700BF0D
:109840002DE9F04F21F0004487B0B4F1795F8046F4
:109850008946CDE900236DDA01F00EFE002800F004
:10986000F78042464B464046494601F06BFB7CA3DD
:10987000D3E9002306460F4601F064FB7AA3D3E93F
:10988000002301F0ADF932463B4601F05BFB78A3C3
:10989000D3E9002301F0A2F932463B4601F052FB26
:1098A00075A3D3E9002301F09BF932463B4601F052
:1098B00049FB73A3D3E9002301F090F932463B46FC
:1098C00001F040FB70A3D3E9002301F089F932468F
:1098D0003B4601F037FB82468B4600230022304690
:1098E0003946C3F6E07301F02DFB52465B46CDE9E5
:1098F00002013046394601F025FBDDE9002304462C
:109900000D464046494601F01DFB02460B462046E7
:10991000294601F063F902460B46DDE9020101F038
:109920005DF90B4600210246C3F6F071002001F0FC
:1099300055F97FE002460B4601F004FB48A3D3E94A
:10994000002306460F4601F0FDFA47A3D3E90023A2
:1099500001F046F932463B4601F0F4FA44A3D3E95C
:10996000002301F03BF932463B4601F0EBFA42A3FB
:10997000D3E9002301F034F932463B4601F0E2FA24
:109980003FA3D3E9002301F029F932463B4601F019
:10999000D9FA3DA3D3E9002301F022F93B46324630
:1099A00001F0D0FA43F23233C3F6D3739C428246BD
:1099B0008B4692DD0023C3F6E9739C423DDC002117
:1099C000A4F5001300220020C3F6F07114461D46D2
:1099D00001F004F9CDE9040100230022C3F6E0738D
:1099E0003046394601F0AEFA22462B4601F0F6F831
:1099F00052465B46CDE902013046394601F0A2FAF3
:109A0000DDE9002304460D464046494601F09AFA36
:109A100002460B462046294601F0E0F802460B4676
:109A2000DDE9020101F0DAF802460B46DDE9040146
:109A300001F0D4F807B0BDE8F08F00230025002224
:109A4000C3F6E7730024CDE90423C3F6D275C3E758
:109A500000210020C3F6F071ECE700BFAFF30080F7
:109A6000D43888BEE9FAA8BDC4B1B4BD9EEE213E8B
:109A7000AD529C804F7E923E9015CB19A001FA3ECC
:109A80007751C1166CC1563F4C5555555555A53F9C
:109A90002DE9F04F4AF6AB25D41EC2F6AA25ADF546
:109AA0001B7D03F1FF3C85FB0475CDF808C0E4176E
:109AB00045F6B806DDF890C2C0F601061F460690CE
:109AC0000891C4EBA50456F82C6024EAE4740A94C7
:109AD000E343029C099603EB430314EB060802EBF5
:109AE000C303079318D40A9E08F10108A598351BF3
:109AF0004FEA88080CAE002400EB85090020002105
:109B0000002D03DB59F8040001F0B6F904340135E7
:109B10004445E6E90201F1D1099C002C33DB099DA3
:109B20000DF5B87ABB465EAE06EBC5060096DDF8CD
:109B300008C0BCF1000FBCBF4FF000084FF0000997
:109B40001ADB0DF1380E069D0EEBCB064FF0000828
:109B50004FF00009002476E902230134F5E8020100
:109B600001F0F0F902460B464046494601F038F84C
:109B7000BC4280468946EED1009D0BF1010BEAE91B
:109B80000289AA45D3D1099E0DF5067C9AAC731EB5
:109B90000CEB860C00969B00CDF830C0E4180B93BC
:109BA0000D94009C9AAD009EE400002E05EB04038A
:109BB000049453E93C892ADD5EAE85AD3419002357
:109BC0000022C3F670634046494601F0BBF901F03C
:109BD00053FC01F051F900230022C4F270138246B5
:109BE0008B4601F0AFF902460B464046494600F06D
:109BF000F5FF01F041FC52465B4645F8040F74E95D
:109C0000020100F0EDFFB44280468946D7D1079AA1
:109C10004046494600F048FF00224FF07F5304467B
:109C20000D4601F08FF900F0B7FD00230022C4F2C9
:109C3000200301F087F902460B462046294600F032
:109C4000CDFF0D46044601F017FC064601F014F95D
:109C500002460B462046294600F0C0FFDDF81CC036
:109C6000BCF1000F8046894640F3C081009C9AAD4C
:109C7000CCF11801631ECCF1170405EB830353F8F4
:109C8000502C52FA01F0361810FA01F1521A43F82A
:109C9000502C52FA04F5002D3FDD009C0136002CBB
:109CA00040F3D08186AB03EB8400002407E021B1B0
:109CB0000124C1F1807143F8041C83420ED053F893
:109CC000041B002CF3D04FF6FF7201248342C0F234
:109CD000FF02C1EB020243F8042CF0D1DDF81CC0F6
:109CE000BCF1000F16DDBCF1010F00F08A81BCF160
:109CF000020F0FD1DDF800C00DF51A7E0CF1FF3315
:109D00000EEB830353F8502C22F07F4222F44002E2
:109D100043F8502C022D00F0858040464946002231
:109D2000002301F077FB002800F0A180009C601E5A
:109D3000099C844210DCDDF800C00DF5067E0C9C09
:109D400000220EEB8C0353F8041DA34242EA0102E9
:109D5000F9D1002A40F07C820D9C54F8503C002B35
:109D600040F074820B9D86AE0123721952F8041DD7
:109D700001330029FAD0DDF800C063440CF1010A78
:109D80009A4505934BDC0A9D029C0CEB050BA59EA6
:109D900004EB0A03049D013B06EB8B0B0DF1380C21
:109DA0005EAC0CEBC30C6419CDF800C004945BF8F6
:109DB000040F01F061F8DDF808C0009EBCF1000F4F
:109DC000BCBF4FF000084FF00009E6E90201009621
:109DD0001CDB0AEB07060DF1380E069D4FF000085C
:109DE0004FF0000900240EEBC60676E90223013489
:109DF000F5E8020101F0A6F802460B464046494646
:109E000000F0EEFEBC4280468946EED1059D0AF187
:109E1000010A049CAA45E4E902890494C7DD059E71
:109E20000096BEE6002142464B460020C3F6F07184
:109E300000F0D4FE80468946002C3FF46EAF00212E
:109E4000079A0020C3F6F07100F02EFE02460B4682
:109E50004046494600F0C2FE002200238046894663
:109E60004046494601F0D6FA00287FF45FAF0596D8
:109E70000495002840F00782DDF81CC040464946A2
:109E8000CCF1000200F010FE00230022C4F2701397
:109E900006460F4601F0DCFA002800F0F9810023A5
:109EA0000022C3F670633046394601F04BF8009D3E
:109EB0000DF51A7C0CEB850401F0DEFA01350095F6
:109EC00000F0DAFF009D00230DF51A7E0022C4F297
:109ED00070130EEB85058046894601F033F8024683
:109EE0000B463046394600F079FE079E1836079635
:109EF00001F0C2FA494644F8500C404601F0BCFA61
:109F000045F8500C00210020C3F6F071079A00F0CC
:109F1000CBFD009C002C06460F465DDB01340DF5A1
:109F2000067C0DF5BC7E5EAD06950CEB84050EEB54
:109F3000C40455F8040D00F09FFF32463B4601F083
:109F400001F800230022C3F6706364E90201304681
:109F5000394600F0F7FFDDF818C0644506460F46A5
:109F6000E7D1009C0027DDF824800DF1D80B04F127
:109F7000FF3ACDF808B0D146B8F1000FC0F25581D4
:109F8000002FC0F252810DF5BC7C994D0CEBC90637
:109F90004FF0000A4FF0000B002401E0BC4210DC3F
:109FA000F6E902230134F5E9020100F0CBFF024695
:109FB0000B465046594600F013FEA04582468B469C
:109FC000ECDA029D09F1FF3905EBC703013719F1FE
:109FD000020FC3E900ABCFD1A49C032C00F2B580E3
:109FE000DFE814F00801BB00BB0032001AD1DDF835
:109FF00000C00DF51A7E0EEB8C0353F8545CED1582
:10A0000049E6DDF800C00DF51A7E0CF1FF330EEBCA
:10A01000830353F8502C22F07F4222F4000243F8CD
:10A02000502C77E600230022C3F6E073002501F0F0
:10A030000FFA00283FF471AE009C02250136002C77
:10A040003FF730AE002449E6009E00230DF1D80B07
:10A050001946002E60DDDDF800C00DF1D80B0DF1C2
:10A06000E00A0CF101050BEBC5052C4654E9028909
:10A0700054E9046742464B463046394600F0B0FD8D
:10A08000CDE902013046DDE90223394600F0A6FDA4
:10A0900002460B464046494600F0A2FDDDE9026754
:10A0A00064E90201544544E90267DFD1DDF800C0EC
:10A0B00000231946BCF1010F2EDD0BF1100A2C46CE
:10A0C00054E9028954E9046742464B463046394612
:10A0D00000F086FDCDE900013046DDE90023394678
:10A0E00000F07CFD02460B464046494600F078FDF4
:10A0F000DDE9006764E90201544544E90267DFD104
:10A1000000231C461846214675E9022300F068FD2D
:10A11000554503460C46F5D1049C002C00F0C58043
:10A12000089E01F10041DBF80050DBF80800DBF885
:10A130000440DBF80C2004F10044356002F10042D9
:10A140007460B060F26033617161DDF814C00CF0CE
:10A1500007000DF51B7DBDE8F08FDDF800C0002382
:10A160000DF1D80B1946BCF1000F13DBDDF800C070
:10A170000DF1D80B00230CF101041D460BEBC404B8
:10A180001846294674E9022300F02AFD5C4503467F
:10A190000D46F5D1049C01F1004204B90A46DDF8F0
:10A1A00020C00D461E461746DBE900011A46CCE9E1
:10A1B00000672B4600F012FD009C002C03460CDDCE
:10A1C0000BEBC4040D4618462946FBE9022300F0B8
:10A1D00007FDA34503460D46F5D1049D0DB101F1E0
:10A1E0000041089E1C460D46C6E90245ADE700BF8A
:10A1F000C0580108009C00200146002C0BDB0134F4
:10A2000036AD002005EBC404014674E9022300F0DA
:10A21000E7FCAC42F9D1049D0DB101F10041089E6B
:10A2200002460B46C6E900238FE7029D09F1FF397C
:10A230004FF0000A4FF0000B05EBC703013719F18F
:10A24000020FC3E900AB7FF497AEC5E6012392E5A8
:10A250000596049583009AADEA18079C009052F881
:10A26000502C183C0794002A7FF44CAE86AE024670
:10A27000F318214653F8040D013A18390028F9D093
:10A28000009207913EE6DDF800C00CF1FF30E1E7F7
:10A29000DDF800C00DF51A7E304639460EEB8C0411
:10A2A00001F0EAF844F8500C2CE6DDF820C01C461A
:10A2B000DBE900670D46DBE90223CCE90445CCE984
:10A2C0000067CCE9022340E72DE9F04F85B0064650
:10A2D0000F46CDE9002321F00043B3F1795F03DAA3
:10A2E00001F0CAF800286ED032463B463046394667
:10A2F00000F028FE32463B4604460D4600F022FEA2
:10A300003FA3D3E90023804689462046294600F032
:10A3100019FE3DA3D3E9002300F060FC22462B4642
:10A3200000F010FE3AA3D3E9002300F059FC2246C6
:10A330002B4600F007FE38A3D3E9002300F04EFCC3
:10A3400022462B4600F0FEFD35A3D3E9002300F0A2
:10A3500047FC0E9B82468B46002B39D000230022FF
:10A36000C3F6E073DDE9000100F0ECFD52465B4608
:10A37000CDE902014046494600F0E4FD02460B46A5
:10A38000DDE9020100F02AFC22462B4600F0DAFD4E
:10A39000DDE9002300F022FC23A3D3E900230446D7
:10A3A0000D464046494600F0CDFD02460B4620468C
:10A3B000294600F015FC02460B463046394600F0AF
:10A3C0000DFC06460F463046394605B0BDE8F08F15
:10A3D00002460B462046294600F0B4FD12A3D3E9FD
:10A3E000002300F0FBFB42464B4600F0ABFD02466B
:10A3F0000B463046394600F0F3FB06460F46E2E7CF
:10A400007CD5CF5A3AD9E53DEB9C2B8AE6E55A3EFE
:10A410007DFEB157E31DC73ED561C119A0012A3F9A
:10A42000A6F810111111813F495555555555C53F95
:10A430004FF6FF732DE9F04FC4F20F4321F00045B2
:10A4400083B09D420E460F4604461FDD0023C7F62B
:10A45000F0739D4200F3C38014BF00230123002842
:10A460000CBF002203F00102002A40F0B88042F243
:10A47000FB1642F618543346CBF6F976C3F6F97359
:10A48000C5F244440029C8BF1E46B0E04FF6FF7332
:10A49000C3F6DB739D4200F3BE804FF6FF73C3F635
:10A4A0001F639D4240F3A8804FF0FF3C2246334695
:10A4B00020463146CDF804C000F044FD02460B466C
:10A4C00082468B4600F03EFD95A3D3E900238046EB
:10A4D000894600F037FD94A3D3E9002300F080FB08
:10A4E00042464B4600F02EFD91A3D3E9002300F035
:10A4F00077FB42464B4600F025FD8FA3D3E90023AE
:10A5000000F06EFB42464B4600F01CFD8CA3D3E9E5
:10A51000002300F065FB42464B4600F013FD8AA382
:10A52000D3E9002300F05CFB52465B4600F00AFDD5
:10A5300087A3D3E9002382468B464046494600F074
:10A5400001FD85A3D3E9002300F048FB42464B46BA
:10A5500000F0F8FC82A3D3E9002300F03FFB424661
:10A560004B4600F0EFFC80A3D3E9002300F036FB5C
:10A5700042464B4600F0E6FC7DA3D3E9002300F001
:10A580002DFB42464B4600F0DDFCDDF804C0BCF17B
:10A59000FF3F02460B4664D045F608155046C0F60C
:10A5A0000105594605EBCC0500F01AFB224633465F
:10A5B00000F0C8FCD5E9082300F010FB2246334622
:10A5C00000F00CFB02460B46D5E9000100F006FB4B
:10A5D000002F0E460446B8BF01F1004607E02046B2
:10A5E00022463146334600F0FBFA04460E4620462A
:10A5F000314603B0BDE8F08F5FA3D3E9002300F03C
:10A60000EFFA00230022C3F6F07300F02BFF0028BE
:10A610003FF44AAFEBE700F0B3F84FF6FF73C3F631
:10A62000F2739D42804689462CDC4FF6FF73C3F6D9
:10A63000E5739D425EDC02460B464FF0000CCDF800
:10A6400004C000F0CDFA00230022C3F6F07300F03E
:10A65000C5FA00224FF0804304460D464046494665
:10A660002EE05046594600F0BBFA2246334600F031
:10A6700069FC02460B462046314600F0AFFA04461C
:10A680000E46B4E747F6FF73C4F203039D4224DC91
:10A6900000230022C3F6F8734FF0020CCDF804C07B
:10A6A00000F09CFA00230022C3F6F87304460D461E
:10A6B0004046494600F046FC00230022C3F6F073F2
:10A6C00000F08EFA02460B462046294600F064FD53
:10A6D000DDF804C004460E46E8E600210020CBF673
:10A6E000F07142464B4600F057FD4FF0030C044614
:10A6F0000E46DBE600230022C3F6F0734FF0010C98
:10A70000CDF804C000F06AFA00230022C3F6F0730B
:10A7100004460D4640464946D2E700BFAFF30080ED
:10A7200011DA22E33AAD903FEB0D76244B7BA93F43
:10A73000513DD0A0660DB13F6E204CC5CD45B73F11
:10A74000FF8300922449C23F0D5555555555D53FBD
:10A750002F6C6A2C44B4A2BF9AFDDE522DDEAD3FB1
:10A760006D9A74AFF2B0B33F711623FEC671BC3F51
:10A77000C4EB98999999C93F9C7500883CE4377E51
:10A7800021F00041704700BF21F0004000F100407F
:10A7900000F58010C00F70472DE9F04FC1F30A5645
:10A7A000A6F57E7483B0073C8246132C8B46804608
:10A7B00027DC002C51DB4FF6FF73C0F20F0353FA76
:10A7C00004F606EA0105054316D041A3D3E90023A8
:10A7D000019100F005FA0022002300F043FEDDF8AD
:10A7E00004C0002835D0BCF1000F69DB2CEA060C50
:10A7F0004FF00008E346C2465046594603B0BDE854
:10A80000F08F332C09DDB4F5806FF5D102460B468D
:10A8100000F0E6F982468B46EEE7A6F582634FF03C
:10A82000FF32033B32FA03F50542E5D028A3D3E912
:10A830000023019100F0D4F90022002300F012FE61
:10A84000DDF804C028B1BCF1000F28DB28EA0508B8
:10A8500000E0DC46E346C246CEE71DA3D3E9002371
:10A8600000F0BEF90022002300F0FCFD0028F0D02B
:10A87000BBF1000FA4BF4FF00008C446EADA2BF08A
:10A8800000484FF0000C48EA0A08CBF6F07CB8F11B
:10A89000000F08BFDC4618BF4FF00008DAE7142CA1
:10A8A00009D0C6F586634FF00108033308FA03F8B0
:10A8B00018EB0A08CAD30CF1010C28EA0508C9E70D
:10A8C0004FF4801353FA04F4A4448FE7AFF30080ED
:10A8D0009C7500883CE4377E0B4650EA030110B4B7
:10A8E00002D1022010BC7047D0F1010238BF002213
:10A8F000B3F1004F14BF002102F001010029F0D193
:10A900004FF6FF71A3F58010C7F6DF7103F1FE4427
:10A91000884204F570048CBF002001208C428CBF5B
:10A92000014640F0010104200029DBD1B3F5801F6E
:10A9300003F100402CBF00210121B0F5801F38BF7A
:10A9400041F0010109B10320CCE713F5801FC7F6E0
:10A95000F07114BF002001208B4214BF034640F069
:10A96000010302EA0300BDE7002070470021002038
:10A97000C7F6F871704700BF2DE9F04FC1F30A55D3
:10A98000A5F57E76CF0F073E83B0132E804689460D
:10A9900002460B4638DC002E55DB4FF6FF71C0F245
:10A9A0000F01314101EA090050EA080027D04908A7
:10A9B00001EA090050EA08020BD029EA01034FF42A
:10A9C0008021132E0CBF4FF00042002251FA06F6F0
:10A9D000334345F64814C0F6010404EBC707D7E932
:10A9E00000452046294600F0FBF822462B46CDE9DB
:10A9F0000001DDE9000100F0F1F88046894640469B
:10AA0000494603B0BDE8F08F332E09DDB6F5806FFF
:10AA1000F5D102460B4600F0E3F880468946EEE7A2
:10AA2000A5F582654FF0FF31033DE9400142E6D0D4
:10AA300049080142CDD020EA01024FF0804151FA8D
:10AA400005F52A43C5E721F000430343D7D021F0A1
:10AA50007F4345F6481123F47003C0F6010143EA31
:10AA6000000201EBC70153424FEA59441A43D1E9AE
:10AA700000AB130B504603F40023424643EA44491B
:10AA800059464B4600F0ACF85B465246CDE9000112
:10AA9000DDE9000100F0A2F821F00043804643EA1E
:10AAA000C779ACE7000000002DE9F843C1F30A576D
:10AAB00004460D4616460B46002F2DD121F00043CB
:10AAC000034325D000230022C4F2503300F03AFAA9
:10AAD00043F6B043CFF6FF739E4204460D463EDB7D
:10AAE000C1F30A5740F2FE72363F0B46BF19974238
:10AAF000C4BF22462B461BDD2DA1D1E9000100F089
:10AB00005FF82BA3D3E9002300F01CFA04460D469E
:10AB100020462946BDE8F88340F2FF72974229D0CB
:10AB200040F2FE72BF199742C4BF22462B46E3DCB7
:10AB3000002FC2BF23F0FE4323F4700343EA0755FE
:10AB4000E6DC17F1350F1FDA4CF2503322469E42F5
:10AB50002B46D1DC18A1D1E9000100F031F816A391
:10AB6000D3E9002300F0EEF904460D4620462946BD
:10AB7000BDE8F88302460B4600F032F804460D4665
:10AB800020462946BDE8F883363723F0FE4323F4F8
:10AB90007003204643EA0755002329460022C3F6E6
:10ABA000904300F0CFF904460D46B1E7AFF30080C3
:10ABB0009C7500883CE4377E59F3F8C21F6EA501EE
:10ABC00003F0004321F0004230B443EA020130BCFC
:10ABD000704700BF81F0004102E000BF83F00043F6
:10ABE00030B54FEA41044FEA430594EA050F08BF28
:10ABF00090EA020F1FBF54EA000C55EA020C7FEAEC
:10AC0000645C7FEA655C00F0E2804FEA5454D4EB68
:10AC10005555B8BF6D420CDD2C4480EA020281EA32
:10AC2000030382EA000083EA010180EA020281EA6A
:10AC30000303362D88BF30BD11F0004F4FEA0131BC
:10AC40004FF4801C4CEA113102D0404261EB4101CB
:10AC500013F0004F4FEA03334CEA133302D0524251
:10AC600063EB430394EA050F00F0A780A4F101040D
:10AC7000D5F1200E0DDB02FA0EFC22FA05F2801847
:10AC800041F1000103FA0EF2801843FA05F359412D
:10AC90000EE0A5F120050EF1200E012A03FA0EFCAC
:10ACA00028BF4CF0020C43FA05F3C01851EBE371D6
:10ACB00001F0004507D54FF0000EDCF1000C7EEBF3
:10ACC00000006EEB0101B1F5801F1BD3B1F5001F31
:10ACD0000CD349085FEA30004FEA3C0C04F1010450
:10ACE0004FEA445212F5800F80F09A80BCF1004F79
:10ACF00008BF5FEA500C50F1000041EB045141EAFB
:10AD0000050130BD5FEA4C0C404141EB010111F4FB
:10AD1000801FA4F10104E9D191F0000F04BF0146A6
:10AD20000020B1FA81F308BF2033A3F10B03B3F184
:10AD300020020CDA0C3208DD02F1140CC2F10C0214
:10AD400001FA0CF021FA02F10CE002F11402D8BF72
:10AD5000C2F1200C01FA02F120FA0CFCDCBF41EA3E
:10AD60000C019040E41AA2BF01EB0451294330BD0D
:10AD70006FEA04041F3C1CDA0C340EDC04F11404EA
:10AD8000C4F1200220FA04F001FA02F340EA0300C1
:10AD900021FA04F345EA030130BDC4F10C04C4F107
:10ADA000200220FA02F001FA04F340EA03002946E7
:10ADB00030BD21FA04F0294630BD94F0000F83F431
:10ADC000801306BF81F480110134013D4EE77FEA14
:10ADD000645C18BF7FEA655C29D094EA050F08BF60
:10ADE00090EA020F05D054EA000C04BF1946104641
:10ADF00030BD91EA030F1EBF0021002030BD5FEA85
:10AE0000545C05D14000494128BF41F0004130BDAC
:10AE100014F580043CBF01F5801130BD01F0004500
:10AE200045F0FE4141F470014FF0000030BD7FEA73
:10AE3000645C1ABF194610467FEA655C1CBF0B466E
:10AE4000024650EA013406BF52EA033591EA030F85
:10AE500041F4002130BD00BF90F0000F04BF00217D
:10AE6000704730B54FF4806404F132044FF00005B0
:10AE70004FF0000150E700BF90F0000F04BF002129
:10AE8000704730B54FF4806404F1320410F000458F
:10AE900048BF40424FF000013EE700BF42004FEA8A
:10AEA000E2014FEA31014FEA02701FBF12F07F4307
:10AEB00093F07F4F81F06051704792F0000F14BF04
:10AEC00093F07F4F704730B54FF4607401F0004548
:10AED00021F0004120E700BF50EA010208BF70479F
:10AEE00030B54FF000050AE050EA010208BF704794
:10AEF00030B511F0004502D5404261EB41014FF4FD
:10AF0000806404F132045FEA915C3FF4DCAE4FF000
:10AF100003025FEADC0C18BF03325FEADC0C18BFE7
:10AF2000033202EBDC02C2F1200300FA03FC20FA38
:10AF300002F001FA03FE40EA0E0021FA02F1144485
:10AF4000C1E600BF70B54FF0FF0C4CF4E06C1CEA9A
:10AF500011541DBF1CEA135594EA0C0F95EA0C0F0F
:10AF600000F0DEF82C4481EA030621EA4C5123EA82
:10AF70004C5350EA013518BF52EA033541F48011B1
:10AF800043F4801338D0A0FB02CE4FF00005E1FB64
:10AF900002E506F00042E0FB03E54FF00006E1FBAE
:10AFA00003569CF0000F18BF4EF0010EA4F1FF04F1
:10AFB000B6F5007F64F5407404D25FEA4E0E6D4131
:10AFC00046EB060642EAC62141EA55514FEAC52042
:10AFD00040EA5E504FEACE2EB4F1FD0C88BFBCF5BE
:10AFE000E06F1ED8BEF1004F08BF5FEA500E50F16F
:10AFF000000041EB045170BD06F0004646EA010135
:10B0000040EA020081EA0301B4EB5C04C2BFD4EB66
:10B010000C0541EA045170BD41F480114FF0000E5F
:10B02000013C00F3AB8014F1360FDEBF002001F0CD
:10B03000004170BDC4F10004203C35DA0C341BDC47
:10B0400004F11404C4F1200500FA05F320FA04F019
:10B0500001FA05F240EA020001F0004221F000414D
:10B0600010EBD37021FA04F642EB06015EEA430EC0
:10B0700008BF20EAD37070BDC4F10C04C4F12005F0
:10B0800000FA04F320FA05F001FA04F240EA0200A3
:10B0900001F0004110EBD37041F100015EEA430E74
:10B0A00008BF20EAD37070BDC4F1200500FA05F294
:10B0B0004EEA020E20FA04F301FA05F243EA020313
:10B0C00021FA04F001F0004121FA04F220EA020022
:10B0D00000EBD3705EEA430E08BF20EAD37070BD68
:10B0E00094F0000F0FD101F00046400041EB010148
:10B0F00011F4801F08BF013CF7D041EA060195F02A
:10B10000000F18BF704703F00046520043EB0303E3
:10B1100013F4801F08BF013DF7D043EA06037047D0
:10B1200094EA0C0F0CEA135518BF95EA0C0F0CD0DB
:10B1300050EA410618BF52EA4306D1D181EA030121
:10B1400001F000414FF0000070BD50EA410606BF1B
:10B150001046194652EA430619D094EA0C0F02D160
:10B1600050EA013613D195EA0C0F05D152EA0336A5
:10B170001CBF104619460AD181EA030101F00041C3
:10B1800041F0FE4141F470014FF0000070BD41F00C
:10B19000FE4141F4780170BD70B54FF0FF0C4CF4E6
:10B1A000E06C1CEA11541DBF1CEA135594EA0C0F05
:10B1B00095EA0C0F00F0A7F8A4EB050481EA030E52
:10B1C00052EA03354FEA013100F088804FEA033339
:10B1D0004FF0805545EA131343EA12634FEA022207
:10B1E00045EA111545EA10654FEA00260EF00041C8
:10B1F0009D4208BF964244F1FD0404F5407402D21A
:10B200005B084FEA3202B61A65EB03055B084FEAAA
:10B2100032024FF480104FF4002CB6EB020E75EBA7
:10B22000030E22BFB61A754640EA0C005B084FEACF
:10B230003202B6EB020E75EB030E22BFB61A75464C
:10B2400040EA5C005B084FEA3202B6EB020E75EB97
:10B25000030E22BFB61A754640EA9C005B084FEA0F
:10B260003202B6EB020E75EB030E22BFB61A75461C
:10B2700040EADC0055EA060E18D04FEA051545EA0B
:10B2800016754FEA06164FEAC30343EA52734FEAB4
:10B29000C2025FEA1C1CC0D111F4801F0BD141EA2D
:10B2A00000014FF000004FF0004CB6E711F4801F92
:10B2B00004BF01430020B4F1FD0C88BFBCF5E06F72
:10B2C0003FF6AFAEB5EB030C04BFB6EB020C5FEA82
:10B2D000500C50F1000041EB045170BD0EF0004ED7
:10B2E0004EEA113114EB5C04C2BFD4EB0C0541EA09
:10B2F000045170BD41F480114FF0000E013C90E606
:10B3000045EA060E8DE60CEA135594EA0C0F08BFC9
:10B3100095EA0C0F3FF43BAF94EA0C0F0AD150EAC8
:10B3200001347FF434AF95EA0C0F7FF425AF10465B
:10B3300019462CE795EA0C0F06D152EA03353FF483
:10B34000FDAE1046194622E750EA410618BF52EA00
:10B3500043067FF4C5AE50EA41047FF40DAF52EAD4
:10B3600043057FF4EBAE12E74FF0FF3C06E000BF71
:10B370004FF0010C02E000BF4FF0010C4DF804CD7E
:10B380004FEA410C7FEA6C5C4FEA430C18BF7FEA3E
:10B390006C5C1BD001B050EA410C0CBF52EA430C6C
:10B3A00091EA030F02BF90EA020F0020704710F1EC
:10B3B000000F91EA030F58BF994208BF90422CBF7B
:10B3C000D8176FEAE37040F0010070474FEA410C74
:10B3D0007FEA6C5C02D150EA013C07D14FEA430C92
:10B3E0007FEA6C5CD6D152EA033CD3D05DF8040B03
:10B3F000704700BF8446104662468C461946634635
:10B4000000E000BF01B5FFF7B7FF002848BF10F10B
:10B41000000F01BD4DF808EDFFF7F4FF0CBF012050
:10B4200000205DF808FB00BF4DF808EDFFF7EAFFCC
:10B4300034BF012000205DF808FB00BF4DF808ED87
:10B44000FFF7E0FF94BF012000205DF808FB00BF7C
:10B450004DF808EDFFF7CEFF94BF012000205DF806
:10B4600008FB00BF4DF808EDFFF7C4FF34BF012013
:10B4700000205DF808FB00BF4FEA410212F5001200
:10B4800015D211D56FF47873B3EB625212D94FEA2B
:10B49000C12343F0004343EA505311F0004F23FA15
:10B4A00002F018BF404270474FF00000704750EA6A
:10B4B000013005D111F0004008BF6FF00040704727
:10B4C0004FF00000704700BF4FEA4102B2F1E04385
:10B4D00024BFB3F5001CDCF1FE5C0DD901F0004C7B
:10B4E0004FEAC0024CEA5070B2F1004F40EB8300CB
:10B4F00008BF20F00100704711F0804F21D113F1F7
:10B500003872BCBF01F00040704741F480114FEA2F
:10B510005252C2F11802C2F1200C10FA0CF320FAB8
:10B5200002F018BF40F001004FEAC1234FEAD323D5
:10B5300003FA0CFC40EA0C0023FA02F34FEA43033F
:10B54000CCE77FEA625307D150EA01331EBF4FF0C8
:10B55000FE4040F44000704701F0004040F0FE40E3
:10B5600040F40000704700BF40F20403C2F2000341
:10B570001868704770B545F6282645F62825C0F6A8
:10B580000106C0F60105761BB61006D0002455F85A
:10B59000043B01349847A642F9D145F62C2645F6DE
:10B5A0002825C0F60106C0F60105761B0AF030FA20
:10B5B000B61006D0002455F8043B01349847A64243
:10B5C000F9D170BD4FF46D4340F0BE61CEF200037F
:10B5D00041F42020D8607047C37830B47BB900783C
:10B5E0004FF4614C410900F01F02CEF2000C2031F3
:10B5F000012313FA02F04CF8210030BC70474FF4DD
:10B600006D45CEF200054278EC6885780178E34319
:10B61000C3F30223C3F1040C5FFA8CF412FA04F4AE
:10B620000F2252FA03F34FF4614C03EA0502CEF203
:10B63000000CE4B2614442EA04031A0181F80023D9
:10B6400002784FF4614C5109CEF2000C02F01F0356
:10B65000012010FA03F24CF82120CEE7D0F804C004
:10B660000B684A792CF0407CF0B42CF4807C0D7986
:10B67000CF680C698E684CEA030343EA05254560F0
:10B6800085684FF2FD7CCCF2FF0C3C4305EA0C03CD
:10B69000344344EA030C4CEA420383600A7DC16AE6
:10B6A000531E21F47002D9B242EA0153C362F0BCC6
:10B6B000704700BF00210123016001714171816069
:10B6C000C16001610375704770B44FF40C5290E88B
:10B6D0004200C4F2010285685468C06846EA010C61
:10B6E00043F2E003CFF6FC734CEA0501014304EAA0
:10B6F000030C41EA0C03536070BC704700230360E5
:10B7000043608360C3607047836819B923F0010107
:10B710008160704743F0010383607047092970B46A
:10B720001FD901EB41041E3CC6680725A54026EA47
:10B73000050513FA04F445EA0403062AC3601ED97A
:10B740000C2A02EB820227D9C46A413A1F23934094
:10B7500024EA030C11FA02F24CEA0201C16270BC45
:10B760007047066901EB41040725A54026EA050557
:10B7700013FA04F445EA0403062A0361E0D8013A07
:10B7800002EB8202446B1F23934024EA030C914096
:10B790004CEA01024263E2E7046B233A1F23934021
:10B7A00024EA030C11FA02F24CEA02010163D6E723
:10B7B000816841F080438360704700BF836819B996
:10B7C00023F480718160704743F480738360704715
:10B7D000836819B923F400718160704743F40073E2
:10B7E00083607047016846F21002002321F00101D6
:10B7F000C4F202020160036043608360C3600361BE
:10B800002123904243616DD046F2280CC4F2020C11
:10B8100060456ED046F24001C4F20201884270D009
:10B8200046F2580CC4F2020C604572D046F2700128
:10B83000C4F20201884274D046F2880CC4F2020CB1
:10B84000604577D046F2A001C4F20201884240D0A0
:10B8500046F2B80CC4F2020C604575D046F21041B5
:10B86000C4F20201884277D046F2284CC4F2020C9E
:10B87000604578D046F24041C4F2020188427AD055
:10B8800046F2584CC4F2020C60457CD046F270413E
:10B89000C4F2020188427ED046F2884CC4F2020C07
:10B8A000604500F0818046F2A041C4F20201884266
:10B8B00000F0848046F2B84CC4F2020C604501BF2F
:10B8C0004FF4C84CC4F2020C4FF03D52CCF80C209F
:10B8D00070474FF4C040C4F202000022C2F23D02A1
:10B8E000C26070474FF4C040C4F202003D22826043
:10B8F00070474FF4C043C4F202034FF4746199607F
:10B9000070474FF4C040C4F202004FF474128260DA
:10B9100070474FF4C043C4F202034FF07461996062
:10B9200070474FF4C040C4F202003D22C2F2000250
:10B93000C26070474FF4C043C4F202034FF4746115
:10B94000C2F20001D96070474FF4C043C4F2020351
:10B950004FF03D51D96070474FF4C840C4F2020027
:10B960003D22826070474FF4C843C4F202034FF493
:10B970007461996070474FF4C840C4F202004FF4FC
:10B980007412826070474FF4C843C4F202034FF050
:10B990007461996070474FF4C840C4F202003D22C0
:10B9A000C2F20002C26070474FF4C843C4F20203FF
:10B9B0004FF47461C2F20001D96070474FF4C8407F
:10B9C000C4F202000022C2F23D02C260704700BF12
:10B9D0002DE9F00F0368D1F80090D1F80CA0D1F850
:10B9E0001480D1F818C0CF690E6A4D6A8C6A4A6B10
:10B9F000D1F838B086B001930B6B0493CB6A0593F2
:10BA00000B6902934B68896803934AEA090343EA86
:10BA1000080343EA0C033B4343EA060949EA0505E8
:10BA200045EA040C4CEA020348F23F08019ACFF2BF
:10BA30001C0843EA0B0502EA080845EA080404600A
:10BA40004369049A059C23F0070542EA040C4CEA7A
:10BA50000502039B029D426145608360C16006B0A0
:10BA6000BDE8F00F704700BF0023036043608360B0
:10BA7000C360036143618361C361036243628362A4
:10BA8000C362036343638363704700BF036819B9EC
:10BA900023F001010160704743F001030360704728
:10BAA00041607047406880B2704700BF006800F096
:10BAB000010070470B0604D543697AB143F0800357
:10BAC0004361802906D0036801F01E011AB923EAF8
:10BAD00001020260704719430160704723F0800340
:10BAE0004361EEE730B44FF4C84C46F20F444FF4D4
:10BAF000C043C4F20204C4F2020CC4F20203A04226
:10BB000088BF63468A004BBF40F67D7240F67D7564
:10BB1000C0F67D72C0F67D754BBF0A400D40DA60FD
:10BB20009D6030BC704700BF4FF47053C4F20203F5
:10BB30001A69002A09DA40F2231148F6AB10C4F260
:10BB40006751CCF6EF505960586070474FF470530E
:10BB5000C4F20203186940F000421A61704700BF46
:10BB60004FF47053C4F20203D860704782B04FF4B0
:10BB700070530820C4F202038DF80700DA68D2037C
:10BB80003BD4D968C80625D505238DF807309DF824
:10BB9000070001281AD14FF47053C4F202030AE0DF
:10BBA000DA68D2061CD505228DF807209DF807C05B
:10BBB000BCF1010F0AD1D968C903F1D501228DF872
:10BBC00007209DF807C0BCF1010FF4D09DF80700D5
:10BBD00002B07047DA6812F0EF0F10D00623D4E7F6
:10BBE000D86810F0EF0F01D00622DDE7D96811F018
:10BBF000020F0CBF08220722D6E70123C5E7DB6846
:10BC000013F0020F0CBF08230723BEE770B50446EC
:10BC10000E46FFF7ABFF082800D070BD4FF47055FB
:10BC2000C4F202052A6922F440702861296941F4AE
:10BC300000732B612A6942F0010028612660FFF73A
:10BC400095FF296921F001032B6170BD70B5054690
:10BC50000E4649B1022914BF4FF440764FF40076E6
:10BC6000012908BF4FF48076FFF780FF082800D035
:10BC700070BD4FF47054C4F20204206920F4407384
:10BC80002361226916432661216921F0F8002061B1
:10BC9000236943F0020215432561216941F4803094
:10BCA0002061FFF763FF236923F00202226121690B
:10BCB00021F0F803236170BD2DE9F00F002484B05A
:10BCC0000B68224601254FF0030821E0013215FAE6
:10BCD00002F606EA03070234B7424DD0571C05FAB4
:10BCE00007F6019706EA0307B74204F1020C73D086
:10BCF000961C05FA06F909EA03074F45019604F177
:10BD0000040C00F0998003320634102A00F0BD8044
:10BD100015FA02F606EA0307B742D7D1D0F8009029
:10BD200091F804C008FA04F6F64306EA090AC0F8D6
:10BD300000A0D0F800900CFA04FA0CF1FF3C5FFA76
:10BD40008CFC4AEA0909BCF1010FC0F8009040F2EE
:10BD5000A080C76891F807903E40C660C76809FA9E
:10BD600004FC4CEA07060132C66015FA02F606EA40
:10BD700003070234B742B1D1D0F8009091F804C063
:10BD800008FA04F6F64306EA090AC0F800A0D0F85B
:10BD900000900CFA04FA0CF1FF3C5FFA8CFC4AEAC2
:10BDA0000909BCF1010FC0F8009040F29280C76809
:10BDB00091F807903740C760C66809FA04FC4CEA5E
:10BDC0000607C760571C05FA07F6019706EA03073E
:10BDD000B74204F1020C8BD1D0F800A091F804B066
:10BDE00008FA0CF66FEA060909EA0A0AC0F800A088
:10BDF00006680BFA0CFA0BF1FF3B5FFA8BFB4AEA81
:10BE0000060ABBF1010FC0F800A040F28280C768AB
:10BE1000CE7909EA0707C760C76806FA0CF6374308
:10BE2000961C05FA06F9C76009EA03074F45019613
:10BE300004F1040C7FF467AFD0F800A091F804B0CF
:10BE400008FA0CF66FEA060909EA0A0AC0F800A027
:10BE500006680BFA0CFA0BF1FF3B5FFA8BFB4AEA20
:10BE6000060ABBF1010FC0F800A077D9C768CE79E8
:10BE700009EA0707C760C76806FA0CF603323E43B3
:10BE80000634102AC6607FF443AF04B0BDE8F00F5B
:10BE90007047D0F808A091F806C091F8059006EA1E
:10BEA0000A0AC0F808A0D0F808A009FA04F949EA7B
:10BEB0000A09C0F80890D0F8049029EA07074760FB
:10BEC00047680CFA02F91FFA89FC4CEA0707476039
:10BED0003FE7D0F808A091F806C091F8059006EA6F
:10BEE0000A0AC0F808A0D0F808A009FA04F949EA3B
:10BEF0000A09C0F80890D0F8049029EA07074760BB
:10BF000047680CFA02F91FFA89FC4CEA07074760F8
:10BF10004DE7D0F808A091F805B08E79CDF808B0BB
:10BF200009EA0A0AC0F808A00396029ED0F808B0F1
:10BF300006FA0CF646EA0B0AC0F808A0D0F804B0DE
:10BF4000DDF80CA02BEA0707DDF804B0476047686E
:10BF50000AFA0BF6B6B23E43466058E7D0F808A09E
:10BF600091F805B08E79CDF808B009EA0A0AC0F850
:10BF700008A00396029ED0F808B006FA0CF646EA2E
:10BF80000B0AC0F808A0D0F804B0DDF80CA02BEA2A
:10BF90000707DDF804B0476047680AFA0BF6B6B247
:10BFA0003E43466062E700BF4FF6FF72002380E821
:10BFB0000C007047036919420CBF00200120704734
:10BFC0000183704741837047CB08083301F00701B4
:10BFD00030B4890050F823500F248C4025EA040423
:10BFE00040F8234050F8234012FA01F10C4340F886
:10BFF000234030BC704700BF08B54FF4A843C4F2DB
:10C000000003984218D04FF4B041C4F200018842B6
:10C010001ED04FF4B842C4F20002904200D008BDD6
:10C0200001214FF4000000F07FF94FF400000021DF
:10C03000BDE8084000F078B901214FF4001000F08D
:10C0400073F94FF400100021BDE8084000F06CB90E
:10C0500001214FF4800000F067F94FF480000021C7
:10C06000BDE8084000F060B970B5044684B0A2880D
:10C0700068460D4622F03F0600F0CEF802982A6886
:10C080004DF68363C4F21B333604A3FB0031360C38
:10C09000890C41EA0603A380B4F800C02CF0010625
:10C0A000330448F2A066C0F201061B0CB2422380A2
:10C0B00028D85300B0FBF3F080B20131218403286B
:10C0C00098BF0420A083B4F800E0A8886E8929896D
:10C0D000B5F80CC01FFA8EF242F001032380B4F8C9
:10C0E00000E02EF4806222F00A031A04120C46EAE1
:10C0F000000342EA030E41EA0C00A4F800E02081AC
:10C1000004B070BDEB884BF6FF7E73451DBF02EB9C
:10C11000820202EB8202B0FBF2F002EB420216BF97
:10C1200080B2B0FBF2F040F480400205160D0EB96B
:10C1300040F001004FF4967344F6D35603FB01F22E
:10C14000C1F2620686FB02239E096FEA404C711C15
:10C150006FEA5C402184B5E741F288330021036037
:10C160004BF6FF724FF480438180C2800181418190
:10C1700083817047038829B923F001010B041A0C4D
:10C180000280704799B241F001030380704700BFFD
:10C19000038829B923F480710B041A0C02807047BC
:10C1A00099B241F480730380704700BF038829B9B6
:10C1B00023F400710B041A0C0280704799B241F409
:10C1C00000730380704700BF1AB901F0FE010182BD
:10C1D000704741F001010182704700BF038829B90F
:10C1E00023F480610B041A0C0280704799B241F469
:10C1F00080630380704700BF01827047008AC0B22D
:10C20000704700BF83889BB21AB923EA010282807B
:10C2100070471943818070474FF46053C4F20203A2
:10C2200010B49A6802F00C02042A02BF4FF4905135
:10C23000C0F27A01016007D0082A1EBF4FF41051E6
:10C24000C0F2F401016020D04FF46053C4F2020345
:10C2500040F2F80C9A68C2F2000CC2F303141CF806
:10C260000420D14041609C68C4F382221CF8024043
:10C2700031FA04F484609A68C2F342331CF8032054
:10C2800031FA02F3C36010BC70475C685A685968A1
:10C2900014F4800F4FF4605C14BF4FF490534FF4CC
:10C2A0001053C4F2020C14BFC0F27A03C0F2F403BC
:10C2B00002F03F02C1F38814B3FBF2F1DCF8043062
:10C2C000C3F3014201FB04F1541C6300B1FBF3F121
:10C2D0000160B9E74FF46053C4F202031A6B19B955
:10C2E00022EA00011963704710431863704700BFCA
:10C2F0004FF46053C4F202031A6C19B922EA000128
:10C300001964704710431864704700BF4FF46053BE
:10C31000C4F202035A6C19B922EA00015964704749
:10C3200010435864704700BF4FF46053C4F20203D7
:10C330001A6A19B922EA000119627047104318629B
:10C34000704700BF4FF46053C4F202035A6A19B930
:10C3500022EA00015962704710435862704700BFDB
:10C360004FF46053C4F20203586F40F080725A6772
:10C37000704700BF08B50023C4F2010398425BD0A8
:10C38000B0F1804F62D04FF48061C4F20001884266
:10C3900066D04FF40062C4F2000290426AD04FF4BB
:10C3A000406CC4F2000C60456ED04FF48053C4F270
:10C3B0000003984272D04FF4A051C4F200018842A9
:10C3C00076D04FF48062C4F2010290427AD04FF4EA
:10C3D000804CC4F2010C60457ED04FF48843C4F217
:10C3E0000103984200F084804FF49041C4F20101AF
:10C3F000884200F089804FF4C052C4F2000290429B
:10C4000000F08E804FF4E05CC4F2000C604500F058
:10C4100091804FF40053C4F20003984200D008BD4D
:10C4200001214FF48070FFF77FFF4FF480700021EF
:10C43000BDE80840FFF778BF01200146FFF782FF03
:10C4400001200021BDE80840FFF77CBF0120014624
:10C45000FFF76AFF01200021BDE80840FFF764BF35
:10C4600002200121FFF760FF02200021BDE8084003
:10C47000FFF75ABF04200121FFF756FF04200021D7
:10C48000BDE80840FFF750BF08200121FFF74CFF2F
:10C4900008200021BDE80840FFF746BF1020012119
:10C4A000FFF742FF10200021BDE80840FFF73CBF26
:10C4B00020200121FFF738FF20200021BDE808409F
:10C4C000FFF732BF02200121FFF73CFF02200021CD
:10C4D000BDE80840FFF736BF01214FF48030FFF779
:10C4E00031FF4FF480300021BDE80840FFF72ABF3C
:10C4F00001214FF40030FFF725FF4FF400300021F9
:10C50000BDE80840FFF71EBF01214FF48020FFF770
:10C5100019FF4FF480200021BDE80840FFF712BF4B
:10C5200040200121FFF700FF40200021BDE8084026
:10C53000FFF7FABE80200121FFF7F6FE80200021E0
:10C54000BDE80840FFF7F0BE0023C4F2010330B499
:10C55000C51A6B424FF48062C4F2010243EB05033B
:10C56000904208BF43F00103048883B9A0F1804CD6
:10C57000DCF100054FF48062C4F2000245EB0C0CC4
:10C58000904214BF62464CF00102002A2CD04FF6B4
:10C590008F72B1F802C0144044EA0C044FF4805585
:10C5A000C4F20005421B4FF4A05CC4F2000C18BF9B
:10C5B000012260450CBF002502F0010535B14FF6A0
:10C5C000FF42B1F808C0144044EA0C044D68B1F8C9
:10C5D00000C00480C562A0F828C00BB1897A01862A
:10C5E0000123838230BC70474FF40065C4F200051C
:10C5F000C5EB000CDCF100054FF44062C4F2000210
:10C6000045EB0C05904214BF2A4645F00102002A72
:10C61000C4D0BCE700234FF0FF31416003800381A9
:10C6200043808372704700BF038829B923F001015A
:10C630000B041A0C0280704799B241F00103038089
:10C64000704700BF2DE9F001058CB1F802808F8999
:10C65000B1F800C025F001021604340C0484058CE6
:10C660008488038B0026C4F2010623F0730225F0B0
:10C67000020312041B044FF48065B04214BF00266D
:10C68000012648EA0707C4F20105120C1B0CBFB2D1
:10C69000A84214BF354646F0010542EA0C023B436E
:10C6A000C5B14FF6F775B1F80EC0B1F812800F8A18
:10C6B0008E881D4045EA0C0C4FF6FB734FF6FF4584
:10C6C00048EA07070CEA030325401FFA87FC3343B7
:10C6D0004CEA050489688480028341630384BDE8D1
:10C6E000F00170472DE9F001068CB1F80080B1F837
:10C6F0000CC04F8826F010031D042C0C0484028CFF
:10C700008488068B22F0200526F4E6430026C4F236
:10C7100001061A042B04120C1B0C4FF48065B04266
:10C72000C4F2010514BF0026012643EA0C13A842F7
:10C7300014BF354646F0010542EA082243EA0713D2
:10C74000BDB1CD89B1F810C0B1F804804F8A4FF661
:10C750007F761E4046EA05164FF2FF354FF6BF734F
:10C76000254045EA8C0C06EA030444EA08134CEA27
:10C77000870489688480028381630384BDE8F001B3
:10C78000704700BF038CB1F800C02DE9F00123F41D
:10C7900080752A04140CB1F80C804F880484068C30
:10C7A0008488838B26F400750026C4F201062A04CF
:10C7B00023F073031B04120C4FF48065B04214BFC6
:10C7C00000260126C4F201051B0C42EA0822A842F9
:10C7D00014BF354646F0010543EA0C0342EA07223E
:10C7E000BDB1CD89B1F810C0B1F804804F8A4FF2C5
:10C7F000FF76164046EA05264CF6FF754FF6FF32E7
:10C80000254045EA0C1C06EA020444EA08224CEAE8
:10C810000714896884808383C1630284BDE8F001C2
:10C82000704700BF2DE9F001068CB1F80080B1F827
:10C830000CC04F8826F480531D042C0C0484028CF9
:10C840008488868B22F4005526F4E6430026C4F241
:10C8500001061A042B04120C1B0C4FF48065B04225
:10C86000C4F2010514BF0026012643EA0C33A84296
:10C8700014BF354646F0010542EA082243EA073371
:10C8800035B14BF6FF7C0E8A04EA0C0545EA8614A6
:10C8900089688480828301640384BDE8F001704765
:10C8A000002303804380838083608381C38103826C
:10C8B000438270470B88F0B4002B33D0042B5FD039
:10C8C000082B038C00F08B8023F480524F888E88D5
:10C8D0000D89CC8811040B0C0384B0F81CC0028CA9
:10C8E00022F400512CF440734A04520C19050B0D2C
:10C8F00042EA073143EA06238AB243EA053C42F49E
:10C900008051A0F81CC00184828B22F440610B048A
:10C910001A0C8283818B8BB243EA042CA0F81CC0D2
:10C92000F0BC7047B0F820C04E888D880F89CC8845
:10C930002CF0010211040B0C0384028BB0F820C010
:10C9400022F0F3010B041A0C2CF00A0142EA071240
:10C950000B041FFA82FC46F001011B0C4CEA050295
:10C960000B4302830384B0F818C02CF00C021104AE
:10C970000B0C0383028B91B241EA04030383CFE7DC
:10C98000028C4E888D880F89CC8822F010031A04FF
:10C99000110C0184038BB0F820C023F44072110500
:10C9A0002CF0A0030A0D19040B0C43EA061C42EA02
:10C9B000073291B21FFA8CF242F0100341EA0521CE
:10C9C00001830384B0F818C02CF4406211040B0CEE
:10C9D0000383028B91B241EA04230383A0E723F48B
:10C9E00080724E888D880F89CC8811040B0C0384CB
:10C9F000828BB0F820C022F0F3012CF420630A04EB
:10CA00001904120C0B0C42EA071C43EA06211FFA18
:10CA10008CF28BB242EA050C43F48071A0F81CC082
:10CA20000184828B22F00C0319040A0C8283838B0D
:10CA30001FFA83FC4CEA0401818371E70023012281
:10CA4000038043808280C38003817047406B7047BE
:10CA5000806B7047C06B7047006C7047B0F8443013
:10CA600021B95B045A0CA0F8442070476FEA434197
:10CA70006FEA5143A0F84430704700BF83899BB2EE
:10CA80001AB923EA010282817047194381817047F4
:10CA9000038A828911420CBF0020012019420CBF79
:10CAA000002000F001007047C9430182704700BFB9
:10CAB00008B54FF48053C4F20103984228D04FF4D4
:10CAC0008841C4F2000188422CD04FF49042C4F255
:10CAD0000002904232D04FF4984CC4F2000C6045F2
:10CAE00038D04FF4A043C4F2000398423ED04FF434
:10CAF000A051C4F20101884200D008BD20200121CC
:10CB0000FFF720FC20200021BDE80840FFF71ABCF9
:10CB100010200121FFF716FC10200021BDE808407D
:10CB2000FFF710BC01214FF40030FFF7FDFB4FF47D
:10CB300000300021BDE80840FFF7F6BB01214FF4AB
:10CB40008020FFF7F1FB4FF480200021BDE8084072
:10CB5000FFF7EABB01214FF40020FFF7E5FB4FF49C
:10CB600000200021BDE80840FFF7DEBB01214FF4A3
:10CB70008010FFF7D9FB4FF480100021BDE808407A
:10CB8000FFF7D2BB028AB1F80CC022F44053F0B5D3
:10CB90000446B1F806E08E8848890F890D461904CD
:10CBA0000A0C42EA0E032382A18921F4B05222F03A
:10CBB0000C0347EA060E19044EEA0006B2B2080C4E
:10CBC00042EA0003A381B4F814E02EF440710E048D
:10CBD000320C42EA0C0085B0A0826846FFF71CFBCD
:10CBE0004FF48053C4F20103E11A4E424FF4A050B7
:10CBF000C4F2010046EB0102844214BF134642F026
:10CC00000103002B28D0A689039B30B2002828DB23
:10CC10002E6803EB830303EB830EB000BEFBF0F141
:10CC200048F21F53A089C5F2EB13A3FB015672090A
:10CC30000FFA80FC16016425BCF1000F02FB1512EF
:10CC400018DB10013230A3FB0053C3F3431545EA50
:10CC50000603238105B0F0BDA689029B30B20028EF
:10CC6000D6DA2A6803EB830C0CEB8C015500B1FB80
:10CC7000F5F1D5E7D2003232A3FB021ECEF342110A
:10CC800041EA0603E5E700BF00234FF416510C22EA
:10CC900001608380C380038142818381704700BF2C
:10CCA000838929B923F400510B041A0C828170473F
:10CCB00099B241F400538381704700BFCA05D10D7A
:10CCC000818070478188C805C00D7047838A9BB2F8
:10CCD0001AB923EA010282827047194381827047A0
:10CCE00001F01F0310B4C1F34211012414FA03F33D
:10CCF000A1420ED002290ED014302AB9016821EACF
:10CD00000303036010BC7047026842EA030101603C
:10CD1000F8E70C30F1E71030EFE700BF0388194265
:10CD20000CBF00200120704710B401F01F02012445
:10CD3000C1F342139440012B18D0022B0CBF028A7E
:10CD4000828A1FFA82FC04EA0C0200880124090A84
:10CD500083B214FA01F119420CBF00200120002A0D
:10CD60000CBF002000F0010010BC704783899AB20C
:10CD70002240EAE705289FBF40F65033C2F2000385
:10CD800033F8100080B288BF0020704772B641F2BD
:10CD9000040340F6401240F63C1CCEF20003C2F2FF
:10CDA0000002C2F2000C18681168DCF8002062B6BC
:10CDB00040F65C33C2F20003C1EB000C19684FF47B
:10CDC0007A70BCFBF1F300FB023070472DE9F001F3
:10CDD00072B641F2040C40F6401640F63C15CEF215
:10CDE000000CC2F20006C2F20005DCF80010376841
:10CDF0002A6862B640F65C34C2F20004C7EB010850
:10CE000023684FF47A77B8FBF3F107FB0213181885
:10CE100072B6DCF8008033682A6862B62168C3EB1A
:10CE20000803B3FBF1F307FB02329042F0D8BDE8F0
:10CE3000F001704740F63C13C2F2000318687047D7
:10CE400040F63C13C2F200031A68821819688A423D
:10CE5000FCD8704700B585B06846FFF7DDF900994A
:10CE60004DF68363C4F21B3340F65C3CA3FB010226
:10CE7000C2F2000C4EF6F053CEF20003900CCCF848
:10CE80000000D9684FF48052CEF2000241F0807069
:10CE9000D860116840F6DC0C41F00100C2F2000CD1
:10CEA0001060DCF8002044F6D353C1F26203A3FB08
:10CEB00002214EF21003CEF2000388094FF46D4CAC
:10CEC000421ECEF2000C5A60F021002007228CF89E
:10CED000231098601A6005B000BD00BF0368828807
:10CEE00009B95A8370471A83704700BF0368818865
:10CEF000586981EA00025A61704700BFF0B540F6F8
:10CF00001C04C0EBC00040F20C1CC2F2000483B051
:10CF100004EB8004C2F2000C6846DCF80050FFF716
:10CF200043F8218AE06800910122022669468DF8C3
:10CF300006208DF805608DF80460FEF7BDFE238B9A
:10CF4000606900936946FEF7B7FEE068218AFFF743
:10CF500037F86069218BFFF733F8FFF76BFF4FF469
:10CF6000D457C0F206076430BD4214BF28250A25F5
:10CF700086B20827E068218AFFF71CF878B92846AE
:10CF8000FFF724FFFFF756FFB042F3D940F6081E23
:10CF9000C2F2000E01228EF8002003B0F0BD218AFB
:10CFA000E068FFF70FF82846FFF710FF218AE068D6
:10CFB000FFF706F82846FFF709FF7B1EDFB2002FB8
:10CFC000D8D1218B6069FEF7FDFF2846FFF7FEFEF2
:10CFD000218AE068FEF7F6FF2846FFF7F7FE218A70
:10CFE000E068FEF7EDFF2846FFF7F0FE6069218B51
:10CFF000FEF7E6FF218AE0680091022369460122DC
:10D000008DF805308DF804308DF80620FEF754FEBB
:10D01000218B606900916946FEF74EFEBDE700BFB7
:10D0200030B5C0EBC001054640F61C008A00C2F2D4
:10D03000000087B0135C14180BB907B030BDE0686E
:10D04000A17CE27EFEF7C0FFA17EE27E6069FEF772
:10D05000BBFF284640F60815C2F20005FFF74EFF59
:10D060002D78002DE9D16068FEF7C6FF01A8FFF713
:10D0700073F82A4660684FF44071FFF7C3F840F236
:10D080000C1CC2F2000C6068DCF800300121019336
:10D09000FFF770F801A96068FEF7E6FF4FF4A060A3
:10D0A000FEF790FA05A8222101228DF814108DF8C0
:10D0B00015508DF816508DF81720FEF78DFA2123A4
:10D0C00005A88DF814308DF81550FEF785FAB4E7F1
:10D0D0002DE9F04F40F21015C2F200058BB000268A
:10D0E0000746E86800960196029603960496FFF7B5
:10D0F00041F9A86BFFF73EF9686EFFF73BF9D5F8E9
:10D100009000FFF737F9D5F8BC00FFF733F9D5F8F1
:10D11000E800FFF72FF9D5F81401FFF72BF9D5F840
:10D120004001FFF727F9D5F86C01FFF723F9D5F88F
:10D130009801FFF71FF96846FFF7B2FB7023ADF8BF
:10D140000030012102224FF4807305A8ADF80210CF
:10D15000ADF80C20ADF81030FFF75CFA002F00F0AE
:10D16000D6804FF48069B0464FF02C0BC4F2010911
:10D17000C4F201080BFB06FA05EB0A0408A8FEF747
:10D1800013FFA188237A94F80AC0627A55F80A003E
:10D1900008918DF8243008A902238DF827C08DF856
:10D1A00025308DF82620FEF787FD55F80A00E18826
:10D1B000227EFEF709FFE068236AC8EB000CDCF171
:10D1C000000242EB0C01484508BF41F00101002973
:10D1D00014BF4FF0A70C4FF0530C013B05A9ADF85D
:10D1E00014C00693FFF7B0F9228D208A02920C2812
:10D1F0000CD8DFE800F0990B0B0B8F0B0B0BA30B7C
:10D200000B0B0700E0686946FFF70CFB0136F4B230
:10D21000A742AFD80121E868FFF706FA07F1FF3609
:10D220000121E868012406F00308FFF717FC2C260B
:10D23000A7426CD94FFA88F373B3012B1BD0022B92
:10D240000CD005EB06082146D8F80C00FFF7ECF9E6
:10D250002146D8F80C00FFF701FC022406FB045815
:10D260000121D8F80C00FFF7DFF9D8F80C000121F4
:10D27000FFF7F4FB013406FB04580121D8F80C0039
:10D28000FFF7D2F901340121D8F80C00FFF7E6FBD3
:10D290005FFA84FC67453AD906FB045A04F1010899
:10D2A000012106FB0859DAF80C00FFF7BDF901214E
:10D2B000DAF80C00FFF7D2FB0121D9F80C00FFF7D8
:10D2C000B3F90121D9F80C00FFF7C8FB08FB06628F
:10D2D00005EB02080121D8F80C00FFF7A5F9D8F8F2
:10D2E0000C000121FFF7BAFB04F1030006FB005814
:10D2F0000121D8F80C00FFF797F904340121D8F880
:10D300000C00FFF7ABFB5FFA84FC6745C4D80BB099
:10D31000BDE8F08F0136E0686946F4B2FFF7E2F944
:10D32000A7423FF627AF75E70136E0686946F4B2D9
:10D33000FFF788F9A7423FF61DAF6BE70136E068BB
:10D340006946F4B2FFF71EFAA7423FF613AF61E752
:10D3500070B540F2C826C2F200069AB07069FEF7B6
:10D3600041FA7069FEF7A2FB40F2C8240546C2F2FA
:10D3700000040028F5D101A8FEF776FB2168069588
:10D3800001F14C0502954FF4806507954FF4006557
:10D3900008954FF400552269099540F650334FF433
:10D3A0008075C2F2000360690A95062601A94FF450
:10D3B0000035019203930B950596FEF709FB0121B9
:10D3C0006069FEF763FB16A8FEF798F916A8FEF74A
:10D3D0007BF910A8FEF76EF9012520688DF84550FD
:10D3E00010A98DF844508DF85460FEF737F9206885
:10D3F000217B227E0223FEF791F9E06994F8281040
:10D4000094F834200223FEF789F9A06B94F84410B5
:10D4100094F850200223FEF781F9606D94F86010B3
:10D4200094F86C200223FEF779F9206F94F87C10B1
:10D4300094F888200223FEF771F994F8A420D4F818
:10D440008C0094F898100223FEF768F920682946AA
:10D45000FEF7BEF920682946FEF7B0F92068294694
:10D46000FEF752F92068FEF7A3F91AB070BD00BFAD
:10D470002DE9F04140F20816C2F2000606258CB0F4
:10D4800028463570FFF724FE002406A840F6FC0568
:10D49000C2F20005069407940894FFF7BBF801A8B0
:10D4A000FFF7FEF940F270342846C2F2000401266C
:10D4B000FFF7C4FA4FF0020806A88DF82D808DF80A
:10D4C0002E60FFF7A7F8532209A84FF6FF73ADF8B7
:10D4D00018200793FEF768FDA188637A94F80AC0C4
:10D4E000277A2068099109A98DF82A308DF82BC078
:10D4F0008DF828708DF82980FEF7DEFB227EE1880A
:10D500002068FEF761FD0CAF207F8DF82F6007F8D3
:10D51000040D3846FEF760F806A9E068FFF714F836
:10D520002846FFF78BFA228AE0682A802946FFF70F
:10D53000C1F93246618AE068FFF7A0FA09A8FEF750
:10D5400033FD218E94F836C094F8343094F83520A9
:10D55000E06A099109A98DF82BC08DF828308DF863
:10D560002A208DF82980FEF7A7FB94F84420618ECD
:10D57000E06AFEF729FD94F848308DF82F603846B0
:10D580008DF82C30FEF728F806A9A06BFEF7DCFF1B
:10D590002846FFF753FAB4F83CC0A06BA5F800C0CA
:10D5A0002946FFF787F93246E18FA06BFFF766FA4D
:10D5B00009A8FEF7F9FCB4F85C1094F860E094F860
:10D5C000623094F86120A06D099109A98DF828E0D6
:10D5D0008DF82B308DF82A208DF82980FEF76CFB12
:10D5E00094F87020B4F85E10A06DFEF7EDFC94F88E
:10D5F00074C08DF82F6038468DF82CC0FDF7ECFF15
:10D6000006A9606EFEF7A0FF2846FFF717FAB4F8E8
:10D610006820606E2A802946FFF74CF93246B4F83C
:10D620006A10606EFFF72AFA09A8FEF7BDFCB4F88D
:10D63000881094F88EC094F88C3094F88D20D4F82B
:10D640008400099109A98DF82BC08DF828308DF838
:10D650002A208DF82980FEF72FFB94F89C20B4F83F
:10D660008A10D4F88400FEF7AFFC94F8A0308DF84F
:10D670002F6038468DF82C30FDF7AEFF06A9D4F8A0
:10D680009000FEF761FF2846FFF7D8F9B4F894C080
:10D69000D4F89000A5F800C02946FFF70BF93246F0
:10D6A000B4F89610D4F89000FFF7E8F909A8FEF74F
:10D6B0007BFCB4F8B41094F8B8E094F8BA3094F85D
:10D6C000B920D4F8B000099109A98DF828E08DF8A7
:10D6D0002B308DF82A208DF82980FEF7EDFA94F88A
:10D6E000C820B4F8B610D4F8B000FEF76DFC94F87A
:10D6F000CCC08DF82F6038468DF82CC0FDF76CFF3C
:10D7000006A9D4F8BC00FEF71FFF2846FFF796F9DC
:10D71000B4F8C020D4F8BC002A802946FFF7CAF824
:10D720003246B4F8C210D4F8BC00FFF7A7F909A834
:10D73000FEF73AFCB4F8E01094F8E6C094F8E43050
:10D7400094F8E520D4F8DC00099109A98DF82BC0E4
:10D750008DF828308DF82A208DF82980FEF7ACFA54
:10D7600094F8F420B4F8E210D4F8DC00FEF72CFCB6
:10D7700094F8F8308DF82F6038468DF82C30FDF78E
:10D780002BFF06A9D4F8E800FEF7DEFE2846FFF7D7
:10D7900055F9B4F8ECC0D4F8E800A5F800C0294663
:10D7A000FFF788F83246B4F8EE10D4F8E800FFF737
:10D7B00065F909A8FEF7F8FBB4F80C1194F810E12C
:10D7C00094F8123194F81121D4F80801099109A9AB
:10D7D0008DF828E08DF82B308DF82A208DF82980DF
:10D7E000FEF76AFA94F82021B4F80E11D4F8080173
:10D7F000FEF7EAFB94F824C18DF82F6038468DF8C7
:10D800002CC0FDF7E9FE06A9D4F81401FEF79CFE32
:10D810002846FFF713F9B4F81821D4F814012A8028
:10D820002946FFF747F83246B4F81A11D4F8140124
:10D83000FFF724F909A8FEF7B7FBB4F8381194F8FC
:10D840003EC194F83C3194F83D21D4F8340109915B
:10D8500009A98DF82BC08DF828308DF82A208DF875
:10D860002980FEF729FA94F84C21B4F83A11D4F83B
:10D870003401FEF7A9FB94F850118DF82F6038465B
:10D880008DF82C10FDF7A8FE06A9D4F84001FEF78C
:10D890005BFE2846FFF7D2F8B4F84431D4F84001D3
:10D8A0002B802946FFF706F83246D4F84001B4F839
:10D8B0004611FFF7E3F8E0683146FEF7B5FEA06BCE
:10D8C0003146FEF7B1FE606E3146FEF7ADFED4F88C
:10D8D00090003146FEF7A8FED4F8BC003146FEF7B2
:10D8E000A3FED4F8E8003146FEF79EFED4F81401FA
:10D8F0003146FEF799FED4F840013146FEF794FE1A
:10D900000CB0BDE8F08100BF2DE9F04701209CB0CC
:10D910000146FEF7DFFC02200121FEF7DBFC0420BC
:10D920000121FEF7D7FC01200146FEF7EFFC0120A4
:10D930000146FEF7DDFC02200121FEF7D9FC0420A0
:10D940000121FEF7D5FC01214FF48070FEF7DEFCCB
